SOPHLEQP000003FP FP 26280                                             SOPHISED001                         20120625I0000 0                    SOPHLEQP000003                                  06564670018296refcon123                                                                                                                                 EUR   000000000000000000000000200000000000000000000B   P   2012062500000000000000002012062520170625          8701133                                                                                                                                                                 
SOPHLEQP000018FP FP 26281                                             SOPHISED001                         20120625I0000 0                    SOPHLEQP000018                                  06564670018296refcon123                                                                                                                                 EUR   000000000000000000000000002000000000000000000B   P   2012062500000000000000002012062520170625          8701133                                                                                                                                                                 
SOPHLEQP000003FP FP 26282                                             SOPHISED001                         20120625I0000 0                    SOPHLEQP000003                                  06564670018296refcon456                                                                                                                              EUR      000000000075000000000000000000000000000000000S   P   2012062500000000000000002012062520170625          8701133                                                                                                                                                                 
SOPHLEQP000018FP FP 26283                                             SOPHISED001                         20120625I0000 0                    SOPHLEQP000018                                  06564670018296refcon456                                                                                                                              EUR      000000000002500000000000000000000000000000000S   P   2012062500000000000000002012062520170625          8701133                                                                                                                                                                 
SOPHLEQP000003FP FP 26284                                             SOPHISED001                         20120625I0000 0                    SOPHLEQP000003                                  06564670018296refcon789                                                                                                                              EUR      000000002500000000000000000000000000000000000B   C   2012062500000000000000002012062520160625          8702244                                                                                                                                                                 
SOPHLEQP000018FP FP 26285                                             SOPHISED001                         20120625I0000 0                    SOPHLEQP000018                                  06564670018296refcon789                                                                                                                                 EUR   000000000000000000000000005000000000000000000B   C   2012062500000000000000002012062520160625          8702244                                                                                                                                                                 
SOPHLEQP000003FP FP 26286                                             SOPHISED001                         20120625I0000 0                    SOPHLEQP000003                                  06564670018296refcon999                                                                                                                                 EUR   000000000000000000000001000000000000000000000S   C   2012062500000000000000002012062520160625          8702244                                                                                                                                                                 
SOPHLEQP000018FP FP 26287                                             SOPHISED001                         20120625I0000 0                    SOPHLEQP000018                                  06564670018296refcon999                                                                                                                              EUR      000000000004000000000000000000000000000000000S   C   2012062500000000000000002012062520160625          8702244                                                                                                                                                                 
